:100000000C94A61D0C94D71D0C94D71D0C94D71DD1
:100010000C94D71D0C94D71D0C94D71D0C94D71D90
:100020000C94D71D0C94D71D0C94D71D0C94D71D80
:100030000C94D71D0C947AA50C94D71D0C94D71D45
:100040000C94D71D0C943BC70C94D71D0C94D71D52
:100050000C94D71D0C94D71D0C94A6B40C9474A3C7
:100060000C94D71D0C94EE3B0C94E43B0C94D71DE0
:100070000C94D71D0C94D71D0C94D71D0C94D71D30
:100080000C94B63B0C94D71D0C94D71D0C94D71D23
:100090000C94D71D0C94D71D0C94D71D0C94D71D10
:1000A0000C94D71D0C94D71D0C94883B0C94D71D31
:1000B0000C94D71D0C94D71D0C94D71D0C94D71DF0
:1000C0000C94D71D0C94D71D0C94D71D0C94D71DE0
:1000D0000C94D71D0C94D71D0C94AC360C946D3633
:1000E0000C94D71D084AD73B3BCE016E84BCBFFDA4
:1000F000C12F3D6C74319ABD56833DDA3D00C77FF8
:1001000011BED9E4BB4C3E916BAAAABE0000008090
:100110003F05A84CCDB2D44EB93836A9020C50B91F
:10012000918688083CA6AAAA2ABE000000803F004B
:100130000C9499FD0C945AF30C94D4F20C948B3CCF
:100140000C94E8200C946C3C0C945AFE0C94D1FB5B
:100150000C94AEF20C947F3C0C94873C0C9492F37C
:100160000C9459FD0C94833C0C948FA10C947EF359
:100170000C94C9F30C94733C0C9464F30C9459FBE9
:100180000C94A1F20C94B4F20C9444FC0C9497FBE4
:100190000D94E0010C94E6FF0C9456210C94E7FEBC
:1001A0000C94BCF20C944E3C0C940D250C9499F2DA
:1001B0000C947EF20C94AF9E0C9488F30C94B8F2DD
:1001C0000C9423FF0C946EF30C9495F20C9410FB9A
:1001D0000D9424020C943EFB0C942D9E0C94253C13
:1001E0000C9443F30C94F7FF0C9481FE0C9434218F
:1001F0000C94C4FF0D945B060C946F210C94D0F208
:100200000D94890E0C94BFF30C94AFFC0C9429212F
:100210000C94B5F30C94B09E0C94B6FD0C943FA1D5
:100220000C94D8A10C9450F30C949CF30C94A4F26D
:100230000C9476F30D9495020C9486FE0C94ADFB11
:100240000C949DF20D9493000C9451A30D946606AA
:100250000C9479FB0C94AAF20C944BF30C94CAF214
:100260000C94C2F20C9401A10C94ABF30C9491FF8A
:100270000C94EF9D0C94923C0D9448000C941CA29D
:100280000C947B3C0C945D3C0C9483F20D946802BE
:100290000C94773C0C94D3F30C94A53C0C9486A25C
:1002A0000C9459A20C94DDF30C9437A20C94852184
:1002B0000C94C6F20C949D3C0C941EA10D94AB0EB4
:1002C0004E414E494E495459494E46CDCCCC3D0A3B
:1002D000D7233C17B7D13877CC2B329595E6241F1E
:1002E000B14F0A000020410000C84200401C4620D7
:1002F000BCBE4CCA1B0E5AAEC59D7400407A10F3AA
:100300005A00A0724E18090010A5D4E80000E87643
:1003100048170000E40B54020000CA9A3B0000009A
:10032000E1F505000080969800000040420F0000B3
:1003300000A08601000000102700000000E8030074
:100340000000006400000000000A0000000000013E
:1003500000000000002C76D888DC674F0823DFC13E
:10036000DFAE59E1B1B796E5E3E453C63AE65199F9
:100370007696E8E6C28426EB898C9B62ED407C6F22
:10038000FCEFBC9C9F40F2BAA56FA5F490055A2AD9
:10039000F75C936B6CF9676DC11BFCE0E40D47FEE5
:1003A000F520E6B500D0ED902E03009435770500DA
:1003B00080841E080000204E0A000000C80C333361
:1003C00033330F986E12831141EF8D2114893BE670
:1003D0005516CFFEE6DB18D1844B381BF77C1D90F9
:1003E0001DA4BBE424203284725E228100C9F12462
:1003F000ECA1E53D27434F4D4D554E4943415449EE
:100400004F4E0044525952554E004552524F52538E
:1004100000494E464F004543484F004D3234004599
:1004200072726F722077726974696E6720746F20C0
:10043000454550524F4D210A004A31350053544F23
:10044000505045442E20005072696E7465722073BE
:10045000746F707065642064756520746F206572B8
:10046000726F72732E2046697820746865206572F9
:10047000726F7220616E6420757365204D39393951
:1004800020746F20726573746172742E2028546515
:100490006D70657261747572652069732072657321
:1004A00065742E20536574206974206166746572CA
:1004B0002072657374617274696E67290A004E6FE9
:1004C00020436865636B73756D2077697468206C71
:1004D000696E65206E756D6265722C204C61737457
:1004E000204C696E653A20004E6F20436865636B4F
:1004F00073756D2077697468206C696E65206E7500
:100500006D6265722C204C617374204C696E653A83
:100510002000636865636B73756D206D69736D6131
:100520007463682C204C617374204C696E653A20AA
:10053000004C696E65204E756D626572206973208E
:100540006E6F74204C617374204C696E65204E751B
:100550006D6265722B312C204C617374204C696E76
:10056000653A20004D3131300053657269616C206D
:10057000737461747573206D69736D617463680A57
:100580000053442072656164206572726F720A00C4
:100590002121204B494C4C206361757365642062B6
:1005A0007920746F6F206D75636820696E61637464
:1005B0006976652074696D65202D2063757272659A
:1005C0006E7420636F6D6D616E643A2000627573A6
:1005D000793A2070617573656420666F7220696E68
:1005E0007075740A00627573793A2070617573656D
:1005F0006420666F7220757365720A006275737984
:100600003A2070726F63657373696E670A004D6597
:1006100064696120496E736572746564004D656438
:1006200069612052656D6F7665640053544F505078
:1006300045442E20005072696E7465722073746F89
:10064000707065642064756520746F206572726FC8
:1006500072732E2046697820746865206572726F07
:100660007220616E6420757365204D3939392074AC
:100670006F20726573746172742E202854656D70DA
:100680006572617475726520697320726573657433
:100690002E2053657420697420616674657220721F
:1006A000657374617274696E67290A006563686FA7
:1006B0003A004572726F723A0042696C696E656108
:1006C00072204C6576656C696E6720477269643A82
:1006D0000A0021212053544F502063616C6C6564E3
:1006E0002062656361757365206F6620424C546FAC
:1006F000756368206572726F72202D207265737445
:100700006172742077697468204D3939390A002183
:10071000212053544F502063616C6C6564206265E6
:100720006361757365206F6620424C546F75636812
:10073000206572726F72202D2072657374617274FD
:100740002077697468204D3939390A002F2F616389
:1007500074696F6E3A006E6F74696669636174697B
:100760006F6E20006E6F74696669636174696F6E85
:100770002000656E640053656E64204D3130382072
:10078000746F20726573756D650A00496E736572CA
:10079000742066696C616D656E7420616E6420738F
:1007A000656E64204D3130380A00526568656174A9
:1007B00020446F6E6500526568656174696E672ECE
:1007C0002E2E00526568656174004865617465721B
:1007D0002054696D656F75740053656E64204D31EA
:1007E000303820746F2068656174206E6F7A7A6C7F
:1007F000650A004E6F7A7A6C65205061726B656491
:1008000000486F74656E6420746F6F20636F6C6452
:100810000A007061757365640050617573650072DC
:100820006573756D65640070726F6D70745F0073D1
:10083000686F7700627574746F6E00626567696EC9
:100840000050757267654D6F726500506175736514
:1008500064004C6F61642046696C616D656E742044
:100860005400496E736572742066696C616D656EC3
:100870007420616E642073656E64204D3130380AD7
:1008800000526573756D696E670057616974696EB2
:100890006720666F72206865617475702E0A004C5F
:1008A000656176696E6720473236003F5370656335
:1008B000696669656420582C5920636F6F7264699A
:1008C0006E617465206F7574206F6620626F756E3F
:1008D00064732E0A003F2852296570656174207682
:1008E000616C7565206E6F7420706C6175736962E0
:1008F0006C653B206D757374206265206174206C9B
:100900006561737420312E0A003F28522965706595
:100910006174206D757374206265207370656369FE
:1009200066696564207768656E206E6F74207573E4
:10093000696E6720616E204C43442E0A003F53705D
:1009400065636966696564206E6F7A7A6C65207488
:10095000656D7065726174757265206E6F7420705C
:100960006C61757369626C652E0A003F5370656334
:1009700069666965642066696C616D656E74207373
:10098000697A65206E6F7420706C61757369626C32
:10099000652E0A003F53706563696669656420705F
:1009A00072696D65206C656E677468206E6F742067
:1009B000706C61757369626C652E0A003F507269D4
:1009C0006D65206C656E677468206D757374206248
:1009D0006520737065636966696564207768656E14
:1009E000206E6F74207573696E6720616E204C43B2
:1009F000442E0A003F537065636966696564206E22
:100A00006F7A7A6C652073697A65206E6F742070D6
:100A10006C61757369626C652E0A003F5265747271
:100A2000616374696F6E204D756C7469706C696573
:100A300072206D75737420626520737065636966DA
:100A40006965642E0A003F53706563696669656471
:100A50002052657472616374696F6E204D756C7499
:100A600069706C696572206E6F7420706C6175734B
:100A700069626C652E0A003F53706563696669653B
:100A800064206C6179657220686569676874206E9E
:100A90006F7420706C61757369626C652E0A004317
:100AA000292E0A003F537065636966696564206298
:100AB00065642074656D7065726174757265206E11
:100AC0006F7420706C61757369626C6520283430B6
:100AD0002D00473236207374617274696E672E2E52
:100AE0002E0A004F46460A00466164652048656943
:100AF0006768742000426564204C6576656C696E99
:100B00006720004661696C656420746F20656E61C2
:100B1000626C6520426564204C6576656C696E6721
:100B20000A00496E76616C6964206D6573682E0AEF
:100B3000002E0A002F0050726F62696E67206D658B
:100B4000736820706F696E742000202844525952D7
:100B5000554E2900473239204175746F2042656433
:100B6000204C6576656C696E67003F20284C2C52DE
:100B70002C462C4229206F7574206F6620626F7599
:100B80006E64732E0A003F2856296572626F736582
:100B9000206C6576656C20696D706C617573696237
:100BA0006C652028302D34292E0A00426164205AB9
:100BB0002076616C75650A004E6F2062696C696E03
:100BC00065617220677269640A00416363757261CE
:100BD00063792044656372656173696E67210044BF
:100BE000656372656173696E6720416363757261E5
:100BF00063792044657465637465642E0A00473226
:100C000038004732385A0041636375726163793A3C
:100C10002000206F662000446964200047333420A0
:100C200061626F727465642E0A004163637572615C
:100C30006379204163686965766564005461726711
:100C400065742061636375726163792061636869AB
:100C5000657665642E0A000A5A322D5A313D0050DD
:100C6000726F62696E67204661696C6564005072DC
:100C70006F62696E67206661696C65640A000A4785
:100C8000333420497465726174696F6E3A20003F95
:100C90002841296D706C696669636174696F6E20A3
:100CA0006F7574206F6620626F756E6473202830D4
:100CB0002E352D322E30292E0A003F2854296172FC
:100CC000676574206163637572616379206F757401
:100CD000206F6620626F756E64732028302E30316D
:100CE0002D312E30292E0A003F2849297465726162
:100CF00074696F6E206F7574206F6620626F756EF9
:100D000064732028312D3330292E0A0020204D34E1
:100D100032322053005A204175746F2D416C69673F
:100D20006E0046696E6973686564210A003A207A2C
:100D30003A2000206F662000476F696E6720746F4D
:100D40003A20580043570A00206469723A00206133
:100D50006E676C653A0053746172742072616469E5
:100D600075733A00506F736974696F6E696E6720AE
:100D70007468652070726F62652E2E2E0A003F4CDB
:100D8000656773206F66206D6F76656D656E742084
:100D9000696D706C61757369626C652028302D31E6
:100DA00035292E0A003F2028582C5929206F7574A8
:100DB000206F6620626F756E64732E0A0050726F2A
:100DC0006265206F7574206F6620626F756E647344
:100DD000003F53616D706C652073697A65206E6F9A
:100DE0007420706C61757369626C652028342D35D0
:100DF00030292E0A004D3438205A2D50726F62650A
:100E0000205265706561746162696C6974792054FF
:100E10006573740A003F2856296572626F736520F6
:100E20006C6576656C20696D706C61757369626C58
:100E3000652028302D34292E0A005374616E6461B8
:100E4000726420446576696174696F6E3A2000208F
:100E500052616E67653A2000204D61783A2000208B
:100E60004D696E3A2000205369676D613A20004D4C
:100E700065616E3A200020440020204D3230302041
:100E80005300202844697361626C6564293A004606
:100E9000696C616D656E742073657474696E6773D7
:100EA0000020204D3230312058004D6178204163C0
:100EB00063656C65726174696F6E2028756E697404
:100EC000732F7332290020204D3230332058004DCB
:100ED0006178206665656472617465732028756E3B
:100EE0006974732F73290020520020204D32303452
:100EF000205000416363656C65726174696F6E2098
:100F000028756E6974732F7332292028503C7072D3
:100F1000696E742D616363656C3E20523C7265742A
:100F2000726163742D616363656C3E20543C74721E
:100F30006176656C2D616363656C3E290020540009
:100F400020530020204D323035204200416476612C
:100F50006E6365642028423C6D696E5F7365676DE2
:100F6000656E745F74696D655F75733E20533C6D8B
:100F7000696E5F66656564726174653E20543C6DA0
:100F8000696E5F74726176656C5F666565647261D7
:100F900074653E20583C6D61785F785F6A65726B5E
:100FA0003E20593C6D61785F795F6A65726B3E20C7
:100FB0005A3C6D61785F7A5F6A65726B3E20453C92
:100FC0006D61785F655F6A65726B3E290020440041
:100FD00020490020204D333031205000486F746587
:100FE0006E64205049440020440020490020204DD8
:100FF000333034205000426564205049440020586A
:101000000020204D61783A2000200020204D696E9C
:101010003A2000203B200020204D32313120530067
:10102000536F667420656E6473746F707300203B39
:101030000020550020204D363033204C0046696C8E
:10104000616D656E74206C6F61642F756E6C6F617D
:1010500064003B200020286D6D290020496E7661D8
:101060006C6964206578747275646572200047321B
:101070002F47332062616420706172616D65746511
:1010800072730A0047322F47332062616420706117
:1010900072616D65746572730A00536C6565702EBC
:1010A0002E2E005A2050726F62652050617374209A
:1010B0004265640A005A2050726F62652050617365
:1010C0007420426564004732384C3000205A3A2080
:1010D0000020593A200042656420583A20004D65AE
:1010E000736820706F696E74206F7574206F66204E
:1010F00072616E67650A004D302053746F70004D49
:10110000312053746F7000436F6E74696E756500A3
:101110004E6F204D6F76652E00456E642066696CBB
:1011200065206C6973740A00426567696E206669A0
:101130006C65206C6973740A004E6F206D6564697C
:10114000610A00726573756D65004469736D69733A
:101150007300526573756D696E6720534400286E85
:101160006F2066696C65290043757272656E742024
:1011700066696C653A20005344207072696E746928
:101180006E67206279746520004E6F74205344208E
:101190007072696E74696E670A002E0A0044656C8D
:1011A0006574696F6E206661696C65642C204669A0
:1011B0006C653A200046696C652064656C657465F1
:1011C000643A005072696E742074696D653A20004B
:1011D0000A53746174733A2046696C616D656E746C
:1011E00020757365643A20002C204C6F6E67657320
:1011F00074206A6F623A2000546F74616C207469C5
:101200006D653A200053746174733A20002C2046B7
:1012100061696C65643A20002C2046696E697368C8
:1012200065643A20005072696E74733A20005374FA
:101230006174733A20006F6B006F666600160411CC
:10124000040A040304F50344454255473A004D316E
:1012500031332053004B6E75747775727374277336
:1012600020416E796375626963205072696E74659E
:1012700072204F46462E002F2F005741524E494EA6
:101280004721204C6F77205A204A65726B206D6190
:1012900079206C65616420746F20756E77616E745F
:1012A0006564207061757365732E0A0046523A00BA
:1012B00020466C6F773A20003A2000205365727602
:1012C0006F2000206F7574206F662072616E6765F5
:1012D0000A00536572766F200064697300656E00C2
:1012E00043290A0061626C656420286D696E207470
:1012F000656D702000436F6C64206578747275644E
:1013000065732061726520004D34323120696E634F
:101310006F727265637420706172616D657465725D
:101320002075736167650A004D65736820706F6989
:101330006E74206F7574206F662072616E67650A27
:10134000004F666673657473204170706C696564E4
:1013500000546F6F206661722066726F6D20726537
:10136000666572656E636520706F696E740A00450C
:101370004550524F4D204F4B0A00290A0020746FF0
:1013800020003F5A206F7574206F662072616E676F
:1013900065202800290A0020746F20003F59206F23
:1013A0007574206F662072616E676520282D002994
:1013B0000A0020746F20003F58206F7574206F66FC
:1013C0002072616E676520282D002E0A00202830CB
:1013D0002D313029002076616C7565206F75742081
:1013E0006F662072616E676500416476616E636549
:1013F000204B3D003F285929206F7574206F6620CF
:10140000626F756E64732E0A003F285829206F752D
:1014100074206F6620626F756E64732E0A003F2819
:1014200053292050726F62652D706F736974696FF4
:101430006E20696E64657820696E76616C69642ED1
:101440000A003F28532920697320726571756972FB
:1014500065642E0A004D383420582059205A204502
:1014600000446F6E65207072696E74696E672066E5
:10147000696C650A004D3737004D33310020204D2F
:10148000323036205800486F6D65206F6666736590
:1014900074004361703A004D4541545041434B0044
:1014A000434F4F4C45525F54454D50455241545562
:1014B0005245004348414D4245525F54454D5045C9
:1014C000524154555245004241425953544550509F
:1014D000494E470041524353004D4F54494F4E5FD0
:1014E0004D4F44455300544845524D414C5F505276
:1014F0004F54454354494F4E004C4F4E475F464969
:101500004C454E414D45004155544F5245504F5268
:10151000545F53445F5354415455530053445F57F1
:1015200052495445005245504541540053444341AB
:1015300052440050524F4D50545F535550504F52EB
:101540005400484F53545F414354494F4E5F434FFB
:101550004D4D414E445300454D455247454E43592C
:101560005F50415253455200434153455F4C4947F8
:1015700048545F4252494748544E45535300544FD4
:1015800047474C455F4C494748545300534F4654D6
:10159000574152455F504F574552004255494C44C0
:1015A0005F50455243454E54004C4556454C494EBC
:1015B000475F44415441005A5F50524F42450052E8
:1015C000554E4F5554004155544F4C4556454C00CF
:1015D0005052494E545F4A4F420050524F47524575
:1015E0005353004155544F5245504F52545F544548
:1015F0004D50004155544F5245504F52545F504F3B
:101600005300564F4C554D455452494300454550A3
:10161000524F4D0042494E4152595F46494C455F39
:101620005452414E534645520053455249414C5F36
:10163000584F4E5F584F4646004649524D5741520B
:10164000455F4E414D453A4D61726C696E20322EB8
:10165000302E7820286B6E757477757273742C2019
:1016600047697468756229202844656320313920F0
:10167000323032312030303A35303A30312920534F
:101680004F555243455F434F44455F55524C3A676F
:1016900069746875622E636F6D2F6B6E75747775E4
:1016A0007273742F4D61726C696E2D322D302D78EE
:1016B0002D416E7963756269632D69332D4D454700
:1016C000412D532050524F544F434F4C5F5645527B
:1016D00053494F4E3A312E30204D414348494E45F3
:1016E0005F545950453A4B6E757477757273742711
:1016F0007320416E796375626963205072696E74FC
:1017000065722045585452554445525F434F554EDB
:10171000543A3120555549443A62363135333135E2
:10172000322D383666622D346364382D6264613739
:101730002D3931633661303463343637640A002022
:101740003B0020204D3835312058005A2D50726F03
:101750006265204F666673657400220A00656E71CB
:1017600075657565696E67202200256973002569B6
:101770006D20256973002569682025696D2025691C
:101780007300256964202569682025696D20256915
:1017900073002569792025696420256968202569F9
:1017A0006D202569730042656420436F6F6C696E1C
:1017B000672E2E2E004265642048656174696E674D
:1017C0002E2E2E0023646566696E652044454641D1
:1017D000554C545F0000626564004B6420004B6907
:1017E00020004B702000504944204175746F74757F
:1017F0006E652066696E6973686564212050757432
:1018000020746865206C617374204B702C204B69C8
:1018100020616E64204B6420636F6E7374616E741C
:10182000732066726F6D2062656C6F7720696E74CD
:101830006F20436F6E66696775726174696F6E2E93
:10184000680A00504944204175746F74756E6520B4
:101850006661696C6564212074696D656F75740AD1
:1018600000504944204175746F74756E652066613F
:10187000696C6564212054656D7065726174757260
:101880006520746F6F20686967680A00204B643AAE
:101890002000204B693A2000204B703A2000204362
:1018A0006C617373696320504944200A00204E6FB5
:1018B000206F76657273686F6F740A002054753AF2
:1018C0002000204B753A2000206D61783A200020DE
:1018D0006D696E3A200020643A20002062696173CD
:1018E0003A2000504944204175746F74756E65202C
:1018F00073746172740A00504944204175746F74A6
:10190000756E65206661696C6564212054656D7033
:101910006572617475726520746F6F20686967689D
:101920000A00504944204175746F74756E6500500B
:101930004944204175746F74756E65206661696CE9
:101940006564212042616420686561746572206964
:10195000640A006F70656E0054524947474552450E
:1019600044003A20007A5F70726F6265007A5F6DA2
:10197000696E00795F6D696E00785F6D61780078DF
:101980005F6D696E005265706F7274696E67206575
:101990006E6473746F70207374617475730A0020C1
:1019A000746F6F206C6F6E672065787472757369E1
:1019B0006F6E2070726576656E7465640A002063D0
:1019C0006F6C6420657874727573696F6E207072C5
:1019D0006576656E7465640A00486F6D65202573D1
:1019E00025732573204669727374005761726E699E
:1019F0006E673A20486F6D696E672042756D702082
:101A000044697669736F72203C20310A0002020437
:101A100000000000000070C10000000000006143F1
:101A200000005743000052430000A0400000A040C7
:101A300000000040000000010000000100008000E4
:101A4000555555000000400033333300AAAA2A0040
:101A50004992240000002000C7711C0099991900C8
:101A6000D1451700555515003BB11300244912000C
:101A700011111100000010000F0F0F00E3380E00CD
:101A800043790D00CCCC0C00C3300C00E8A20B0055
:101A900064210B00AAAA0A00703D0A009DD8090023
:101AA000427B090092240900DCD3080088880800E2
:101AB0001042080000000800F0C1070087870700F7
:101AC00075500700711C07003EEB0600A1BC060024
:101AD0006990060066660600703E06006118060002
:101AE00017F4050074D105005BB00500B290050045
:101AF000627205005555050078390500B81E0500CD
:101B0000050505004EEC040087D40400A1BD0400C7
:101B100090A7040049920400C17D0400EE6904000E
:101B2000C7560400444404005C3204000821040049
:101B300041100400000004003FF00300F8E003003F
:101B400026D20300C3C30300CCB503003AA80300A8
:101B50000A9B0300388E0300C08103009F750300B9
:101B6000D0690300505E03001D5303003448030096
:101B7000913D03003333030016290300381F03008F
:101B800097150300300C0300030303000BFA020057
:101B900049F10200BAE802005CE002002DD8020020
:101BA0002DD0020059C80200B0C0020031B90200B5
:101BB000DAB10200AAAA0200A0A30200BC9C0200A3
:101BC000FA9502005C8F0200DF8802008282020028
:101BD000457C02002776020027700200436A02005B
:101BE0007C640200D05E02003F590200C85302002C
:101BF000FFFDFCFAF8F6F4F2F0EEECEAE9E7E5E3D3
:101C0000E1E0DEDCDAD9D7D5D4D2D0CFCDCBCAC88B
:101C1000C7C5C3C2C0BFBDBCBAB9B7B6B4B3B2B012
:101C2000AFADACAAA9A8A6A5A4A2A1A09E9D9C9A6E
:101C300099989795949392908F8E8D8B8A898887A7
:101C40008684838281807F7E7D7B7A7978777675C2
:101C500074737271706F6E6D6C6B6A6968676665BC
:101C600064636261605F5E5D5C5B5A5958585756A9
:101C7000555453525150504F4E4D4C4B4A4A49487F
:101C8000474646454443424241403F3E3E3D3C3B41
:101C90003B3A3938383736353534333232313030F3
:101CA0002F2E2E2D2C2B2B2A292928272726252598
:101CB00024232322212120201F1E1E1D1C1C1B1B30
:101CC0001A191918181716161515141313121211BC
:101CD00011100F0F0E0E0D0D0C0C0B0A0A0909083E
:101CE00008070706060505040403030202010000B5
:101CF0000000614300004843000052430000000020
:101D0000000070C10000000053657474696E677351
:101D10002053746F72656400290A0020627974652B
:101D2000733B20637263200053657474696E67733C
:101D30002053746F726564202800454550524F4D02
:101D400020496E697469616C697A65640A0048614A
:101D50007264636F6465642044656661756C7420A9
:101D600053657474696E6773204C6F616465640AAF
:101D700000203B204C6576656C696E672000202052
:101D80004D3432302053004175746F204265642019
:101D90004C6576656C696E670020204D39303020C7
:101DA0004B004C696E65617220416476616E6365BB
:101DB00000204A00202047323920572049002020A7
:101DC0004D3134392043203B20556E6974732069AE
:101DD0006E2043656C736975730A0054656D706598
:101DE00072617475726520556E69747300202047A6
:101DF0003231203B004C696E65617220556E69740A
:101E00007300454550524F4D206461746173697A87
:101E100065206572726F722E0A00290A00206279AD
:101E20007465733B2063726320002073746F726566
:101E3000642073657474696E677320726574726967
:101E400065766564202800202863616C63756C6189
:101E500074656429210A0020213D20004545505227
:101E60004F4D20435243206D69736D617463682048
:101E70002D202873746F7265642920002053697ABD
:101E8000653A2000496E6465783A20000000FA4304
:101E90000000FA430000C0400000F0410000A042F2
:101EA0000000A0420000C8430000C843B80B000077
:101EB000D00700003C00000010270000204D617298
:101EC0006C696E3D563835290A00454550524F4DD4
:101ED0002076657273696F6E206D69736D617463CE
:101EE000682028454550524F4D3D0024F4D43050D1
:101EF000C38E20C2A24017828B7011127A910D817D
:101F00006CD90AA861E108C7586607615143061EEB
:101F10004B5D05C145A7041A411104093D980371A1
:101F20003931034036DB0265339102D430540280EC
:101F30002E1D02632CEE01752AC501B028A00110E8
:101F40002781018F2564012B244B01E0223401AC51
:101F5000211F018D200D01801FFC00841EED0097C4
:101F60001DDF00B81CD200E61BC600201BBC0064AD
:101F70001AB200B219A8000A19A0006A189900D173
:101F800017910040178B00B516840031167E00B300
:101F90001579003A157300C7146F0058146A00EEE3
:101FA0001366008813630025135E00C7125B006C84
:101FB00012570015125400C111510070114F002129
:101FC000114B00D61049008D104700461044000206
:101FD000104200C00F4000800F3E00420F3C000640
:101FE0000F3B00CB0E3800930E37005C0E350027F8
:101FF0000E3400F30D3200C10D3100900D30006041
:102000000D2E00320D2D00050D2C00D90C2B00AE2D
:102010000C2900850C29005C0C2700350C27000ECC
:102020000C2600E80B2400C40B2400A00B23007D29
:102030000B23005A0B2100390B2100180B2000F84C
:102040000A1F00D90A1E00BB0A1E009D0A1D00803F
:102050000A1D00630A1C00470A1B002C0A1B001102
:102060000A1A00F7091A00DD091900C4091900ABA2
:10207000091900920917007B091800630917004C21
:1020800009160036091600200916000A091500F580
:10209000081500E0081400CC081400B8081400A4C7
:1020A000081400900813007D0812006B08130058F4
:1020B000081200460812003408110023081100120B
:1020C00008110001081100F0071000E0071000D00F
:1020D000071000C0071000B0070F00A10710009103
:1020E000070E0083070F0074070F0065070E0057E7
:1020F000070E0049070E003B070D002E070E0020BB
:10210000070D0013070D0006070D00F9060C00ED82
:10211000060D00E0060C00D4060C00C8060C00BC3E
:10212000060C00B0060C00A4060B0099060C008DEE
:10213000060B0082060B0077060B006C060B006195
:10214000060A0057060B004C060A0042060A003831
:10215000060A002E060A0024060A001A060A0010C3
:1021600006090007060A00FD050900F4050900EB51
:10217000050900E2050900D9050900D0050900C7D5
:10218000050900BE050900B5050800AD050800A554
:102190000509009C050800940508008C05080084CA
:1021A0000508007C050800740508006C050700653B
:1021B0000508005D050700560508004E05070047A5
:1021C0000507004005080038050700310507002A0B
:1021D000050700230507001C050600160507000F6C
:1021E0000507000805060002050700FB040600F5C8
:1021F000040700EE040600E8040600E2040700DB22
:10220000040600D5040600CF040600C9040600C376
:10221000040600BD040600B7040600B1040500ACC6
:10222000040600A6040600A00405009B0406009511
:10223000040500900406008A04050085040500805A
:102240000406007A04050075040500700405006B9F
:1022500004050066040500610405005C04050057E0
:10226000040500520405004D040500480405004320
:102270000405003E0404003A04050035040500305E
:102280000404002C04050027040400230405001E98
:102290000404001A04040016040500110404000DCF
:1022A000040400090405000404040000040400FC04
:1022B000030400F8030400F4030400F0030400EC3A
:1022C000030400E8030400E4030400E0030400DC6A
:1022D000030400D8030400D4030400D0030400CC9A
:1022E000030400C8030300C503030024F404D92039
:1022F0001BC40C5C0E9804C4095F0265077101F4ED
:1023000005F900FB04B30048048700C103690058C5
:1023100003550003034500BE023A00840231005316
:10232000022A002902250004022000E4011C00C842
:10233000011900AF01170098011400840113007106
:102340000110006101100051010E0043010D003623
:10235000010B002B010B0020010B00150109000CE3
:1023600001090003010800FB000800F3000800EB6E
:10237000000700E4000600DE000600D8000600D2D8
:10238000000600CC000500C7000500C2000500BD26
:10239000000400B9000400B5000400B1000400AD61
:1023A000000400A9000400A5000300A20003009F90
:1023B0000004009B000300980003009500020093B6
:1023C000000300900003008D0002008B00030088D2
:1023D0000002008600020084000300810002007FEA
:1023E0000002007D0002007B0002007900020077FD
:1023F000000100760002007400020072000100710A
:102400000002006F0002006D0001006C0002006A13
:10241000000100690002006700010066000100651C
:102420000001006400020062000100610001006020
:102430000001005F0002005D0001005C0001005B24
:102440000001005A00010059000100580001005726
:102450000001005600010055000100540001005326
:102460000000005300010052000100510001005023
:102470000001004F0001004E0000004E0001004D21
:102480000001004C0001004B0000004B0001004A1D
:102490000001004900010048000000480001004719
:1024A0000001004600000046000100450000004514
:1024B000000100440001004300000043000100420D
:1024C0000000004200010041000000410001004006
:1024D0000001003F0000003F0001003E0000003E00
:1024E0000001003D0000003D0001003C0000003CF8
:1024F0000000003C0001003B0000003B0001003AEE
:102500000000003A000100390000003900010038E5
:1025100000000038000000380001003700000037DC
:1025200000010036000000360000003600010035D2
:1025300000000035000000350001003400000034C8
:1025400000000034000100330000003300000033BD
:1025500000010032000000320000003200010031B2
:1025600000000031000000310001003000000030A8
:10257000000000300001002F0000002F0000002F9D
:102580000000002F0001002E0000002E0000002E91
:102590000001002D0000002D0000002D0000002D86
:1025A0000001002C0000002C0000002C0000002C7A
:1025B0000001002B0000002B0000002B0000002B6E
:1025C0000001002A0000002A0000002A0000002A62
:1025D0000001002900000029000000290000002956
:1025E0000000002900010028000000280000002849
:1025F000000000280000002800010027000000273C
:10260000000000270000002700000027000100262E
:102610000000002600000026000000260000002622
:102620000001002500000025000000250000002515
:102630000000002500000025000100240000002407
:1026400000000024000000240000002400010023FA
:1026500000000023000000230000002300000023EE
:1026600000000023000000230001002200000022DF
:1026700000000022000000220000002200000022D2
:1026800000010021000000210000002100000021C5
:1026900000000021000000210000002100010020B6
:1026A00000000020000000200000002000000020AA
:1026B0000000002000000020000000200001001F9A
:1026C0000000001F0000001F0000001F0000001F8E
:1026D0000000001F0000001F0001001E0000001E7F
:1026E0000000001E0000001E000000232C0000B8A7
:1026F000220000561800003A0F0000B8080000B190
:10270000040000710200003E01000020436F756E5E
:102710007420583A00004500626564002C207379EB
:102720007374656D2073746F7070656421204865E3
:10273000617465725F49443A200048656174696E4E
:1027400067204661696C65640048656174696E67FD
:10275000206661696C6564004D31313220536875C3
:1027600074646F776E0070012C0190012701B00135
:102770002201C0011D01F0011801100213013002F5
:102780000E016002090190020401C002FF00000373
:10279000FA004003F5008003F000D003EB002004B2
:1027A000E6007004E100E004DC004005D700C0054D
:1027B000D2004006CD00D006C8008007C300300814
:1027C000BE00F008B900C009B400B00AAF00B00BF9
:1027D000AA00D00CA500000EA000500F9B00C01056
:1027E00096005012910000148C00C0158700B0179D
:1027F0008200B0197D00D01B7800001E73004020BD
:102800006E0090226900F024640040275F00902948
:102810005A00E02B5500102E500020304B00103293
:102820004600E033410090353C00103737007038E7
:102830003200A0392D00B03A2800A03B2300603CB4
:102840001E00103D1900903D1400103E0F00703E18
:102850000A00C03E0500003F0000403FFBFF803FF4
:10286000F6FFC03FF1FF4572723A204D4158544582
:102870004D50004D415854454D5020747269676762
:1028800065726564004572723A204D494E54454D5B
:1028900050004D494E54454D50207472696767652C
:1028A00072656400544845524D414C2052554E418A
:1028B00057415900546865726D616C2052756E61A4
:1028C00077617900202F002042403A0020403A00F2
:1028D00020573A0020573A00496E76616C696420AF
:1028E00065787472756465720A007C3C3E5E2B3DAF
:1028F0003F2F5B5D3B2C2A225C0043616E6E6F7440
:10290000206F70656E207375626469722000534495
:1029100020496E6974204661696C005344206361EC
:102920007264206F6B0A006F70656E526F6F742057
:102930006661696C65640A00766F6C756D652E69F9
:102940006E6974206661696C65640A004E6F20537D
:102950004420636172640A002E0A006F70656E2065
:102960006661696C65642C2046696C653A20004696
:10297000696C652073656C65637465640A00205337
:10298000697A653A200046696C65206F70656E65EE
:10299000643A2000454E4420535542524F55544905
:1029A0004E450A002220706F73002220706172650C
:1029B0006E743A2200535542524F5554494E4520A9
:1029C00043414C4C207461726765743A2200537520
:1029D0006263616C6C204F766572666C6F77004540
:1029E00078636565646564206D6178205355425253
:1029F0004F5554494E452064657074683A005772CB
:102A00006974696E6720746F2066696C653A20008E
:102A1000667265736800646F696E67002066696C32
:102A2000653A20004E6F7720000A4D3234004D3257
:102A300033202573002F6175746F25632E670002A4
:102A40004A3135004A3132004A3137002020506C7B
:102A5000616E6E6572427566666572427974657301
:102A60003A20002046726565204D656D6F72793A97
:102A7000200020436F6D70696C65643A2044656383
:102A800020313920323032310A00204C61737420F9
:102A9000557064617465643A20323032312D3131C1
:102AA0002D3131207C20417574686F723A20286B7B
:102AB0006E75747775727374290A004D61726C6952
:102AC0006E20322E302E780A0020536F66747761A4
:102AD00072652052657365740A00205761746368DB
:102AE000646F672052657365740A002042726F77C5
:102AF0006E206F75742052657365740A00204578E6
:102B00007465726E616C2052657365740A00506F53
:102B100077657255700A0073746172740A004732E7
:102B2000385859004D31303031006F6B006572728A
:102B30006F722077726974696E6720746F2066699E
:102B40006C650A00446F6E6520736176696E67205C
:102B500066696C652E0A004D32390020503A00201B
:102B60005A3A0020593A0020583A00656E6473744E
:102B70006F7073206869743A20001000C902100158
:102B80002C014001220170011801B0010E01F00179
:102B900004015002FA00B002F0003003E600D00356
:102BA000DC009004D2007005C800A006BE0000083A
:102BB000B400B009AA00D00BA000600E960060110E
:102BC0008C000015820020197800C01D6E00A02224
:102BD0006400B0275A00902C500000314600E034C9
:102BE0003C0010383200903A2800603C1E00A03DA6
:102BF0001400803E0A00203F000000002100240055
:102C000027002A002D0030003300010100000401DC
:102C100007010A0100002200250028002B002E00D9
:102C20003100340002010000050108010B01050517
:102C30000505070508080808020202020A0A080832
:102C40000404040401010101010101010303030360
:102C500003030303040707070C0C0C0C0C0C0C0CEF
:102C60000202020206060606060606060B0B0B0B00
:102C70000B0B0B0B01021020200808102040102025
:102C80004080020102010804020101020408102030
:102C9000408080402010080402018004020180402E
:102CA0002010080402010804020101020408102097
:102CB0004080010204081020408000000A0B020935
:102CC0000C0D0E08070304010000000000000000C6
:102CD00000000000000000000000000000000000F4
:102CE00000000000000012111000000000000000B1
:102CF00000000000000000000000000000000000D4
:102D0000486F6D696E67204661696C656400FFFFFE
:102D1000FF50726F62696E67204661696C65640A74
:102D20000050726F62696E67204661696C6564006D
:102D3000205A3A200020593A200042656420583A2F
:102D40002000220A00556E6B6E6F776E20636F6DE8
:102D50006D616E643A202200204500205A002059FF
:102D60000020204D39322058005374657073207054
:102D7000657220756E69740043616E6E6F742065B4
:102D80006E746572207375626469723A2000473907
:102D9000300A4731205A31300A4731205831352026
:102DA00059313520463430303000537065636961E5
:102DB0006C204D656E753A204578697420456173C5
:102DC00079204C6576656C204D656E750A003C4532
:102DD0005A4C4558543E004739300A4731205A353D
:102DE0000A473120583135205932303020463430AE
:102DF00030300A4731205A30005370656369616C86
:102E0000204D656E753A2045617379204C65766575
:102E10006C20504F494E5420340A003C4578697468
:102E20002045617379204C6576656C3E003C455ABF
:102E30004C50443E004739300A4731205A350A4742
:102E4000312058323035205932303020463430303D
:102E5000300A4731205A30005370656369616C2035
:102E60004D656E753A2045617379204C6576656CC9
:102E700020504F494E5420330A003C506F696E7405
:102E800020443E003C455A4C50433E004739300AEE
:102E90004731205A350A47312058323035205931D0
:102EA000352046343030300A4731205A30005370D4
:102EB000656369616C204D656E753A204561737973
:102EC000204C6576656C20504F494E5420320A00E4
:102ED0003C506F696E7420433E003C455A4C504252
:102EE0003E004739300A4731205A350A47312058C9
:102EF0003135205931352046343030300A473120C1
:102F00005A30005370656369616C204D656E753A87
:102F10002045617379204C6576656C20504F494E91
:102F20005420310A003C506F696E7420423E003CD0
:102F3000455A4C50413E004732380A4739300A471B
:102F400031205A350A473120583135205931352042
:102F500046343030300A4731205A300053706563B0
:102F600069616C204D656E753A20456E74657220FE
:102F700045617379204C6576656C204D656E750AE8
:102F8000003C506F696E7420413E003C455A4C56DF
:102F90004C4D3E005370656369616C204D656E75E4
:102FA0003A204578697420424C546F756368204D0F
:102FB000656E752026205361766520454550524F39
:102FC0004D0A003C45617379203420506F696E745E
:102FD000204C6576656C3E003C45585441424C4D52
:102FE0003E005370656369616C204D656E753A20D3
:102FF0004F666673657420446F776E0A003C5341D8
:10300000564520616E6420455849543E003C444E6C
:103010004F46465A303E005370656369616C204DDF
:10302000656E753A204F66667365742055500A00C8
:103030003C446F776E3E003C55504F46465A303EFA
:10304000005370656369616C204D656E753A20456B
:103050006E74657220424C546F756368204D656EC6
:10306000750A003C55703E003C5345544F465A3E4D
:10307000005370656369616C204D656E753A20453B
:1030800078697420466C6F77204D656E750A003C38
:103090004175746F204C6576656C696E673E003CC7
:1030A000455854464C573E004D3232312053256925
:1030B000005370656369616C204D656E753A2046FA
:1030C0006C6F7720446F776E0A003C4578697420F6
:1030D000466C6F772053657474696E67733E003C6D
:1030E000464C444E3E004D32323120532569005348
:1030F00070656369616C204D656E753A20466C6F32
:10310000772055500A003C446F776E3E003C464C99
:1031100055503E005370656369616C204D656E7556
:103120003A20456E74657220466C6F77204D656E4F
:10313000750A003C55703E003C534554464C4F3E8A
:10314000003C53657420466C6F77726174653E0075
:103150003C4241434B3E003C456E64204D657368E4
:10316000204C6576656C696E673E003C534D455852
:1031700049543E005370656369616C204D656E75FE
:103180003A20456E61626C652046696C616D656EC2
:10319000742053656E736F720A003C457869743E03
:1031A000003C454E53454E3E005370656369616C6B
:1031B000204D656E753A2044697361626C652046E6
:1031C000696C616D656E742053656E736F720A0071
:1031D0003C456E61626C652046696C2E2053656EBD
:1031E000736F723E003C44495353454E3E0053704A
:1031F000656369616C204D656E753A2046696C2E79
:10320000204368616E676520526573756D650A00BD
:103210003C44697361626C652046696C2E2053657D
:103220006E736F723E003C524553554D3E004D3615
:103230003030005370656369616C204D656E753A7E
:103240002046696C2E204368616E67652050617569
:1032500073650A003C46696C2E204368616E6765A1
:1032600020526573756D653E003C46696C2E2043A7
:1032700068616E67652050617573653E004732383E
:103280000A4732390A4D3530300A4739300A4D3352
:103290003030205334343020503230300A4D333007
:1032A00030205336363020503235300A4D333030EE
:1032B000205338383020503330300A4731205A33C9
:1032C000302046343030300A4731205830204634E0
:1032D0003030300A4739310A4D3834005370656355
:1032E00069616C204D656E753A20424C546F756370
:1032F00068204C6576656C696E670A003C46696CAF
:103300002E204368616E67652050617573653E00CD
:103310003C424C5443483E004D313430205336300B
:10332000005370656369616C204D656E753A20507D
:1033300072656865617420556C7472616261736551
:103340000A003C5374617274204175746F204C659F
:1033500076656C696E673E003C50524548453E00BC
:103360005370656369616C204D656E753A204C6FD2
:1033700061642046572044656661756C74730A0069
:103380003C5072656865617420556C74726162614D
:1033900073653E003C4C444445463E0053706563B3
:1033A00069616C204D656E753A20536176652045E4
:1033B0004550524F4D0A003C4C6F616420465720E7
:1033C00044656661756C74733E003C5341564545D7
:1033D0003E004D33303320452D31205336302043CD
:1033E000362055310A4D3530300A4D3330302053B8
:1033F00034343020503230300A4D333030205336A0
:10340000363020503235300A4D3330302053383882
:10341000302050333030005370656369616C204D4B
:10342000656E753A205049442054756E6520556C80
:10343000747261626173650A003C53617665204570
:103440004550524F4D3E003C50494455423E004786
:1034500032380A4739300A4731205A32300A473168
:10346000205831313020593131302046343030301D
:103470000A4731205A350A4D313036205331373220
:103480000A473420503530300A4D33303320453030
:103490002053323135204331352055310A4734200D
:1034A000503530300A4D3130370A4732380A47310B
:1034B000205A31300A4D38340A4D3530300A4D33F8
:1034C0003030205334343020503230300A4D3330D5
:1034D00030205336363020503235300A4D333030BC
:1034E00020533838302050333030005370656369D2
:1034F000616C204D656E753A205049442054756EBC
:103500006520486F74656E640A003C50494420543D
:10351000756E6520556C747261626173653E003C26
:1035200050494448453E003C5049442054756E651E
:1035300020486F74656E643E003C535045434D3ED9
:10354000003C5370656369616C204D656E753E008B
:103550004D313038004D313038004D3234004D326D
:103560003400312E342E302D6233004B572D004A5B
:10357000333320002F2E2E002E2E004A31320047EA
:1035800031205A3130004F4B004731205A31300042
:1035900047393000473120452569463530300047EE
:1035A0003120452D302E31462569004731204530E8
:1035B0002E31462569004731205A25694625690084
:1035C0004731205A2D302E31462569004731205A87
:1035D000302E314625690047312059256946256935
:1035E00000473120592D302E3146256900473120C2
:1035F00059302E3146256900473120582569462526
:103600006900473120582D302E3146256900473159
:103610002058302E3146256900473931004732386D
:1036200000473238205A0047323820590047323894
:103630002058004132305620004731205A313000A6
:103640004A3034004A3231004A3230005072696EDA
:103650007465722068616C7465642E206B696C6C93
:1036600028292063616C6C656421004A3136004A68
:103670003034004A303500454E4400464E20003973
:1036800039393A393939004D004800413756200060
:10369000413656202D2D2D004A303200413656201D
:1036A000005A3A2000593A2000583A200041355635
:1036B000004134562000413356200041325620004C
:1036C000413156200041305620004D3237004D38F0
:1036D00034004739310A473120452D3120463138F1
:1036E00030300A473930004A3136004D313235200A
:1036F0004C32004A3138004A3134004A3030004AF6
:103700003031004A3233004D323500473930002025
:10371000746F6F206C6F6E67206578747275736953
:103720006F6E2070726576656E7465640A00206342
:103730006F6C6420657874727573696F6E20707237
:103740006576656E7465640A004F4646004F4E000C
:10375000204553500A00204E53500A005056303135
:1037600020005B4D505D20006F6B0A005265736551
:103770006E643A20003C5370656369616C204D654E
:103780006E753E003C535045434D3E003A20003A92
:10379000202F002F2E2E0A002F2E2E002E2E003C22
:1037A0005370656369616C204D656E753E0A003C1F
:1037B0005370656369616C204D656E753E003C53C6
:1037C0005045434D3E003C457869743E003C534DA6
:1037D000455849543E003C456E61626C652046691F
:1037E0006C2E2053656E736F723E003C454E534500
:1037F0004E3E003C44697361626C652046696C2EE4
:103800002053656E736F723E003C44495353454EDE
:103810003E003C5361766520454550524F4D3E0079
:103820003C53415645453E003C4C6F616420465731
:103830002044656661756C74733E003C4C4444459D
:10384000463E003C5049442054756E6520556C74CA
:103850007261626173653E003C50494455423E00CE
:103860003C5049442054756E6520486F74656E6401
:103870003E003C50494448453E003C4175746F2031
:103880004C6576656C696E673E003C5345544F4607
:103890005A3E003C45617379203420506F696E7444
:1038A000204C6576656C3E003C455A4C564C4D3E6E
:1038B000003C46696C2E204368616E676520526546
:1038C00073756D653E003C524553554D3E003C4678
:1038D000696C2E204368616E676520506175736561
:1038E0003E003C50415553453E003C507265686572
:1038F000617420556C747261626173653E003C5066
:10390000524548453E003C53657420466C6F7772C3
:103910006174653E003C534554464C4F3E003C4567
:103920007869742045617379204C6576656C3E003A
:103930003C455A4C4558543E003C506F696E7420CB
:10394000443E003C455A4C50443E003C506F696E2A
:103950007420433E003C455A4C50433E003C506F5F
:10396000696E7420423E003C455A4C50423E003C39
:10397000506F696E7420413E003C455A4C50413EA8
:10398000003C5341564520616E6420455849543EE1
:10399000003C45585441424C4D3E003C53746172CA
:1039A00074204175746F204C6576656C696E673E56
:1039B000003C424C5443483E003C446F776E3E000E
:1039C0003C444E4F46465A303E003C55703E003C0B
:1039D00055504F46465A303E003C4F465A4453508D
:1039E0003E003C4578697420466C6F7720536574BF
:1039F00074696E67733E003C455854464C573E0010
:103A00003C446F776E3E003C464C444E3E003C5575
:103A1000703E003C464C55503E003C464C44495399
:103A2000503E003C456E64204D657368204C6576C1
:103A3000656C696E673E003C4241434B3E003C531F
:103A400061766520454550524F4D3E003C534156EE
:103A500045453E003C4E657874204D6573682050A6
:103A60006F696E743E003C4E4558544D3E003C5AC2
:103A700020446F776E20302E30313E003C5A444E49
:103A80003030313E003C5A20557020302E30313ECF
:103A9000003C5A55503030313E003C5A20446F773C
:103AA0006E20302E30323E003C5A444E3030323E92
:103AB000003C5A20557020302E30323E003C5A5582
:103AC000503030323E003C5A20446F776E20302E0A
:103AD000313E003C5A444E30313E003C5A20557035
:103AE00020302E313E003C5A555030313E003C5380
:103AF00074617274204D657368204C6576656C69DD
:103B00006E673E003C534D4553483E0020453A0009
:103B1000205A3A0020593A00583A00706F7765727F
:103B20006F6666004A3131005072696E74657220AA
:103B300068616C7465642E206B696C6C2829206345
:103B4000616C6C6564210A005E01000111241FBED6
:103B5000CFEFD1E2DEBFCDBF00E00CBF13E0A0E0AD
:103B6000B2E0E8E2F5E402E00BBF02C007900D927C
:103B7000A03BB107D9F72BE1A0EBB3E001C01D9248
:103B8000A038B207E1F71DE1C5EADDE100E006C0BB
:103B900021970109802FFE010F94DD1DC43AD10742
:103BA00080E00807A9F70F94CB060D9482220C94AD
:103BB00000009F92AF92BF92CF92DF92EF92FF925E
:103BC0000F931F93CF93DF9300D01F921F92CDB717
:103BD000DEB7E0EFFBE10027BB27462F572FA82FCA
:103BE000AA2341F4A52F542FB85FAA2319F4A52FB7
:103BF0005527B85FA03138F45295A295452F4F70E4
:103C0000507FA42BBC5FA03428F4550FAA1F550F7A
:103C1000AA1FBE5FA03818F4550FAA1FB395550F01
:103C2000AA1FEA0FF01F449151E0AA27B85081F172
:103C3000C8F0B0FF02C0440F551FB1FF04C0440FCD
:103C4000551F440F551FB2FF06C052954295142FC1
:103C50001F70407F512BB3FF1BC0A52F542F44274B
:103C60000C94481EB195B0FF02C055954795B1FF21
:103C700004C05595479555954795B2FF05C0529597
:103C8000407F4295452B5F70B3FF02C0452F5527FB
:103C9000DD24CC24BB24B2E0649FD018C108B00A54
:103CA000B00B749FC018B108B00B849FB018B10955
:103CB000659FC018B108B00B759FB018B109859FFA
:103CC000B0196A9FB018B1097A9FB0194D9DA12C07
:103CD00099243327992722275D9DA00C911C301F22
:103CE000901F201FAD9D900C311D901F201F4C9DDB
:103CF000A00C911C301F901F201F5C9D900C311D4B
:103D0000901F201FAC9D300D911D201F4B9D900CCE
:103D1000311D901F201F5B9D300D911D201FAB9DFD
:103D2000900D211D4B9F300D911D201F5B9F900D0D
:103D3000211DAB9F200DB1E0BB24CC24DD24639F6B
:103D4000D018C108B00AB00B739FC018B108B00BEF
:103D5000839FB018B109699FC018B108B00B799F53
:103D6000B018B109899FB019629FB018B109729F4C
:103D7000B019D61AC70AB80A20F0B1E03B0F901F5D
:103D8000201F1124792F632F90E0822F0F900F9026
:103D90000F900F900F90DF91CF911F910F91FF9097
:103DA000EF90DF90CF90BF90AF909F900895AF922B
:103DB000BF92CF92DF92EF92FF920F931F93CF9318
:103DC000DF93C9ECDDE00DE617E089EDA82E8DE06C
:103DD000B82EC12CD12C7601C39469917991899127
:103DE00099910F94F716288939894A895B890F942C
:103DF00058170F94591FF801619371938193919310
:103E00008F01C616D706E806F90610F46B017C018F
:103E1000AC16BD0611F76FEF7FEFCB01A70196013E
:103E20000F94461D20937D0730937E0740937F07B4
:103E300050938007DF91CF911F910F91FF90EF90EA
:103E4000DF90CF90BF90AF900895CF92DF92EF9226
:103E5000FF928091D104882309F457C0C090CD040B
:103E6000D090CE04E090CF04F090D00420E030E079
:103E7000A901C701B6010F94F216882309F445C0C1
:103E800020E030E040E05FE3C701B6010F9458172F
:103E90009B01AC010F9458172BED3FE049E450E42F
:103EA0000F9458179B01AC0160E070E080E89FE33D
:103EB0000F94E01E6B017C01C092A104D092A20479
:103EC000E092A304F092A40460912602709127026C
:103ED000072E000C880B990B0F94F9162AE037ED8A
:103EE00043E25CE30F945817A70196010F9458170B
:103EF00060936602709367028093680290936902F0
:103F0000FF90EF90DF90CF900895C12CD12C80E8E6
:103F1000E82E8FE3F82ED0CF0F931F93E62FDC010E
:103F2000FC910F2F10E030E020E0062E04C0369503
:103F30002795179507950A94D2F700FF1CC00091AA
:103F4000A00410E030E020E004C0369527951795D6
:103F500007956A95D2F700FF0EC041E050E060E09F
:103F600070E004C0440F551F661F771FEA95D2F713
:103F700040954F234C931F910F910895CF93DF935A
:103F800024E0829FC0011124EC01CE53D04FFC01EC
:103F9000E85CF94F8C569B4FDC012D913D914D9182
:103FA0005C9160817181828193810F94E61D6883A9
:103FB00079838A839B83DF91CF910895CF93DF9399
:103FC0001F92CDB7DEB7898360E0CE0101960E94D3
:103FD0008C1F61E0CE0101960E948C1F62E0CE0131
:103FE00001960E948C1F89810F90DF91CF910895D7
:103FF0008F929F92AF92BF92CF92DF92EF92FF92F9
:10400000CF93DF9320912A02222309F49EC0EC0172
:104010008091A004C82ED12CF12CE12C80FF2CC063
:1040200080902C0290902D02A0902E02B0902F0232
:10403000288139814A815B81C501B4010F944620F2
:10404000181624F488829982AA82BB828090380252
:1040500090903902A0903A02B0903B0228813981B9
:104060004A815B81C501B4010F94F21687FF04C039
:1040700088829982AA82BB82D701C601B695A7958C
:104080009795879580FF2CC08090300290903102E8
:10409000A0903202B09033022C813D814E815F812D
:1040A000C501B4010F944620181624F48C829D8219
:1040B000AE82BF8280903C0290903D02A0903E0272
:1040C000B0903F022C813D814E815F81C501B401DA
:1040D0000F94F21687FF04C08C829D82AE82BF824D
:1040E00082E0F694E794D794C7948A95D1F7C0FEFE
:1040F0002CC0C0903402D0903502E0903602F0908F
:104100003702288539854A855B85C701B6010F943A
:104110004620181624F4C886D986EA86FB86C09005
:104120004002D0904102E0904202F0904302288584
:1041300039854A855B85C701B6010F94F21687FF62
:1041400004C0C886D986EA86FB86DF91CF91FF90AE
:10415000EF90DF90CF90BF90AF909F908F90089599
:104160008091900490919104A0919204B091930455
:104170008093220290932302A0932402B0932502FD
:1041800080918E0490918F049093640280936302D7
:1041900008958091220290912302A0912402B0916F
:1041A00025028093900490939104A0939204B0937D
:1041B0009304809163029091640290938F048093A2
:1041C0008E0484E690E090936402809363020895E5
:1041D000CF93DF93FC0126853785D901A05CBF4FC3
:1041E0008D919C91119701968F739927E901CE5B70
:1041F000DF4F4881598148175907D9F34D915C9198
:10420000240F351FD9016C93A685B785A05CBF4FDD
:1042100011969C938E93C689D7892881378D81E02A
:1042200090E0A0E0B0E004C0880F991FAA1FBB1F58
:104230003A95D2F7822B888381E081A30488F5899F
:10424000E02D80818064808381E090E0DF91CF91D8
:104250000895FC0191A1992329F0A489B5898C9135
:1042600086FFF9CF11A20895DC011C968D919C91D7
:10427000FC01E05CFF4F4081518132962081318109
:104280004217530781F020813181820F931FDC0197
:104290008C91208131812F5F3F4F2F7333273183E2
:1042A000208390E008958FEF9FEF0895FC018485AF
:1042B0009585FC01E05CFF4F408151813296208161
:1042C00031814217530741F020813181820F931FC2
:1042D000FC01808190E008958FEF9FEF0895FC012D
:1042E00024853585F901E05CFF4F808191812E5B4B
:1042F0003F4FF90120813181805C9F4F821B930BDE
:1043000060E470E00F94C91D089590E080E0089586
:10431000CF93DF93DB01F9019C919130C1F0943090
:1043200080F094509C938830D1F4808191810097E3
:1043300071F0019791838083480F591FEA01188219
:1043400006C08C3539F49C5F9C93943041F4DF9126
:10435000CF9108958B3339F781E08C93F8CF20818A
:104360003181B9016F5F7F4F71836083420F531FAB
:10437000EA018883808191818F3791056CF7E7CFBF
:104380000F931F9381E000916F1710917017209188
:1043900071173091721740916B1750916C176091A3
:1043A0006D1770916E17041715072607370708F465
:1043B00080E01F910F91089590E080E00895282FEC
:1043C00090914004833021F495FD0FC094FD0FC0FF
:1043D000892F90E0B0E0A0E004C0B695A79597952E
:1043E00087952A95D2F78170089581E0089580E03D
:1043F000089580915C0484FD0BC080915E0487FD6C
:1044000007C090915F04937081E019F480E00895F3
:1044100081E008958F929F92AF92BF92CF92DF92E8
:10442000EF92FF92CF93DF93EC018090660790901C
:104430006707A0906807B090690720E030E0A90105
:10444000C501B4010F94F216882309F454C0C88042
:10445000D980EA80FB80A7019601C501B4010F94C1
:10446000F21618160CF04CC020915D0730915E07D3
:1044700040915F0750916007C701B6010F94F21693
:10448000882331F1C0925D07D0925E07E0925F070A
:10449000F0926007209161073091620740916307B5
:1044A00050916407688179818A819B810F945817A4
:1044B0009B01AC0160E070E080E89FE30F94E51D94
:1044C00060930F0270931002809311029093120276
:1044D00060910F027091100280911102909112026E
:1044E000DF91CF91FF90EF90DF90CF90BF90AF9092
:1044F0009F908F90089560E070E080E89FE3F0CF98
:1045000060E070E0CB01ECCFCF92DF92EF92FF92B0
:10451000CF93DF93EC01CC80DD80EE80FF8029E635
:1045200030E040E751ECC701B6010F94462087FD0B
:1045300023C027E030E048E453E4C701B6010F94FC
:10454000F2161816CCF0C880D980EA80FB8027E1EB
:1045500037EB41ED58EBC701B6010F94462087FDBC
:104560000BC0C1E027E030E041E653E4C701B601EB
:104570000F94F21618160CF4C0E08C2FDF91CF9137
:10458000FF90EF90DF90CF9008952FEB280F2A3106
:1045900008F047C0E22FF0E080915C0490915D0448
:1045A000A0915E04B0915F0404C0B695A79597955D
:1045B00087952A95D2F780FD02C081700895EE5B41
:1045C000FB4FE081EE2341F1809125079091260772
:1045D000E80FF92FF11D808190ED980F9A3030F09F
:1045E0008E3251F4818180538A3098F4F0933304F1
:1045F000E093320481E008958D3211F08B3249F45A
:10460000818190ED980F9A3088F38E3211F4828177
:10461000EACFF0E0E0E0EACF1092330410923204E7
:10462000E9CF80E008950E94C522882341F081E00F
:104630002091320430913304232B09F480E0089553
:104640008F929F92AF92BF92CF92DF92EF92FF92A2
:10465000C0904E05D0904F05E0905005F090510568
:1046600020E030E0A901C701B6010F94F2168823BB
:10467000E1F1A701960160E070E080E89FE30F940C
:10468000E01E6B017C018090520590905305A09034
:104690005405B090550520E030E0A901C501B401F2
:1046A0000F94F216882329F1A501940160E070E0CF
:1046B00080E89FE30F94E01EC0920B04D0920C049C
:1046C000E0920D04F0920E0460930F0470931004B6
:1046D0008093110490931204FF90EF90DF90CF909D
:1046E000BF90AF909F908F900895C12CD12C7601F0
:1046F000CACF60E070E0CB01DFCF2F923F924F92A4
:104700005F926F927F928F929F92AF92BF92CF9261
:10471000DF92EF92FF920F931F93CF93DF93CDB76A
:10472000DEB72E970FB6F894DEBF0FBECDBFE82ED2
:10473000D62E042F122F282F30E03C872B87462FB0
:1047400050E05A87498765E0F62EF29EC001F39E3D
:10475000900D11249E878D87FA01E80FF91FEE0F47
:10476000FF1FEE0FFF1FEE51FB4F608171818281B1
:1047700093819B01AC010F94D820882309F434C1A4
:10478000E00E612F6D0DFE9CF0011124A985BA8504
:10479000AE0FBF1FAA0FBB1FAA0FBB1FAE51BB4F4F
:1047A000AC901196BC9011971296CC9012971396DC
:1047B000DC90E00EFE9CA0011124A985BA85A40F0F
:1047C000B51FAA0FBB1FAA0FBB1FAE51BB4FEC906A
:1047D0001196FC90119712960C91129713969C903B
:1047E000862F90E0AD85BE85A80FB91FAA0FBB1F0D
:1047F000AA0FBB1FAE51BB4F8C9011967C901197A6
:1048000012966C90129713965C90610F70E0AD85D4
:10481000BE85A60FB71FAA0FBB1FAA0FBB1FAE51A5
:10482000BB4F4C9011963C90119712961C91129789
:1048300013962C90E80FF91FEE0FFF1FEE0FFF1FCE
:10484000EE51FB4FB081B98321812A8332813B83B2
:1048500083818C83FA01E60FF71FEE0FFF1FEE0F27
:10486000FF1FEE51FB4F90819D83A181AE83B281EA
:10487000BF83238128879701402F592DB701802FAF
:10488000992D0F94D820882321F0E12CF12C00E001
:10489000912C9501A601B501C6010F94D82088235B
:1048A00019F05701C02ED92C242D332D412F522D14
:1048B000642D732D812F922D0F94D820882321F001
:1048C000412C312C10E0212C282D372D462D552D33
:1048D000682D772D862D952D0F94D820882321F0D3
:1048E000842C732C612E522C2D813E814F81588552
:1048F0006D817E818F8198850F94D820882321F047
:104900001D821E821F82188629813A814B815C811B
:1049100069817A818B819C810F94D820882341F012
:104920003D8139834E814A835F815B8388858C8397
:1049300085E0EB85FC858E9FD0018F9FB00D112403
:1049400029853A85A20FB31FAA0FBB1FAA0FBB1F51
:10495000AE51BB4FBA87A9879501A601B501C60123
:104960000F94E61D9701402F592D0F94E51D6B0103
:104970007C01282D372D462D552D682D772D862D20
:10498000952D0F94E61D242D332D412F522D0F947C
:10499000E51D9B01AC01C701B6010F94E61D6B013B
:1049A0007C0129813A814B815C8169817A818B818B
:1049B0009C810F94E61D2D813E814F8158850F9477
:1049C000E51D9B01AC01C701B6010F94E61D20E077
:1049D00030E040E450E40F94E01EA985BA856D9361
:1049E0007D938D939C9313972E960FB6F894DEBF0C
:1049F0000FBECDBFDF91CF911F910F91FF90EF9030
:104A0000DF90CF90BF90AF909F908F907F906F90EE
:104A10005F904F903F902F9008959091731794FB63
:104A2000882780F994FF06C081E09091FA1A9111CD
:104A300001C080E008950F931F938091B2048130EC
:104A400019F50E9415F40091A6041091A704209175
:104A5000A8043091A904601B710B820B930B28EE04
:104A600033E040E050E00F94461D6091AA0470913D
:104A7000AB048091AC049091AD04620F731F841F4E
:104A8000951F1F910F9108956091AE047091AF042E
:104A90008091B0049091B104D6CF8091B20481305E
:104AA00079F482E08093B2040E9415F46093AE041E
:104AB0007093AF048093B0049093B10481E00895A3
:104AC00080E00895CF93DF93EC01CD3181E0D807EA
:104AD00014F0CDE1D1E0D0934F07C0934E07609121
:104AE0004A0770914B0780914C0790914D070F94A6
:104AF000521FCB01BE01DF91CF910C9421F4CF93D3
:104B0000DF93E6E4F7E0C085D18564817581868115
:104B100097810F94521FCB01BE01DF91CF910C946E
:104B200021F40F931F93CF93DF930DED1DE0C6E9A2
:104B3000D7E0F80121913191419151918F0160E0CD
:104B400070E080E89FE30F94E01E69937993899366
:104B50009993F7E0C63ADF0761F70E9401F2DF910F
:104B6000CF911F910F910C94D71E4F925F926F922D
:104B70007F928F929F92AF92BF92CF92DF92EF92ED
:104B8000FF920F931F93CF93DF93EC012091460583
:104B900030914705409148055091490568817981D8
:104BA0008A819B810F94E51D6B017C0120914A0550
:104BB00030914B0540914C0550914D056C817D81A4
:104BC0008E819F810F94E51D4B015C01A701960129
:104BD0006091030270910402809105029091060297
:104BE0000F94F216882309F45AC0C0920302D0929F
:104BF0000402E0920502F092060220910B0430912B
:104C00000C0440910D0450910E04C701B6010F949D
:104C100058172B013C010F94881F6B017C0120E089
:104C200030E0A9010F94F21687FD7AC020E030E051
:104C300040E850E4C701B6010F944620181634F43A
:104C4000C12CD12CC0E8EC2EC0E4FC2EA7019601AB
:104C5000C301B2010F94E51D2B013C0120E030E0BF
:104C6000A9010F94F21687FD5FC040920304509291
:104C700004046092050470920604C701B6010F9403
:104C8000521F60930104062E000C770B6F5F7F4F5D
:104C90006430710514F064E070E06093FF03D0911C
:104CA000010210910104A501940160910702709125
:104CB00008028091090290910A020F94F216811164
:104CC0003CC0D11394C02091E7033091E803409198
:104CD000E9035091EA036091030470910404809108
:104CE0000504909106040F9458172091EB0330911E
:104CF000EC034091ED035091EE030F94E61DDF911C
:104D0000CF911F910F91FF90EF90DF90CF90BF90C8
:104D1000AF909F908F907F906F905F904F9008958D
:104D2000C12CD12C760192CF10920304109204046E
:104D30001092050410920604A0CF80920702909270
:104D40000802A0920902B0920A0220910F04309149
:104D500010044091110450911204C501B4010F9444
:104D600058174B015C010F94881F6B017C0120E0F8
:104D700030E0A9010F94F21687FDFDC020E030E07D
:104D800040E850E4C701B6010F944620181634F4E9
:104D9000C12CD12CB0E8EB2EB0E4FB2EA70196017C
:104DA000C501B4010F94E51D4B015C0120E030E02A
:104DB000A9010F94F21687FDE2C080920704909239
:104DC0000804A0920904B0920A04C701B6010F9426
:104DD000521F60930204062E000C770B6F5F7F4F0B
:104DE0006430710514F064E070E060930004C091D9
:104DF0000204D11305C0809102028C1709F470C01F
:104E00008091010490910204909302028093010228
:104E10000C2E000CDD0B25E01203C0011124FC0157
:104E2000EC0FFD1FEE0FFF1FEE0FFF1FEE51FB4FAC
:104E300020813181428153812093FB033093FC0315
:104E40004093FD035093FE0300910004002E000CDC
:104E5000110BFC01E00FF11FEE0FFF1FEE0FFF1F04
:104E6000EE51FB4F60817181828193810F94E51D2A
:104E70006093F7037093F8038093F9039093FA0318
:104E80002091FF0335E02303F0011124CE0FDF1F33
:104E9000CC0FDD1FCC0FDD1FCE51DB4F28813981B8
:104EA0004A815B812093F3033093F4034093F5032D
:104EB0005093F603E00FF11FEE0FFF1FEE0FFF1FE1
:104EC000EE51FB4F60817181828193810F94E51DCA
:104ED0006093EF037093F0038093F1039093F203D8
:104EE0008090070490900804A0900904B0900A04F0
:104EF0002091F7033091F8034091F9035091FA03A0
:104F0000C501B4010F9458172091FB033091FC03A5
:104F10004091FD035091FE030F94E61D6B017C014F
:104F2000C092EB03D092EC03E092ED03F092EE031B
:104F30002091EF033091F0034091F1035091F2037F
:104F4000C501B4010F9458172091F3033091F40375
:104F50004091F5035091F6030F94E61DA7019601C9
:104F60000F94E51D6093E7037093E8038093E903D2
:104F70009093EA03A8CEC12CD12C76010FCF1092CA
:104F80000704109208041092090410920A041DCF1D
:104F9000CF92DF92EF92FF92CF93DF93EC010896CE
:104FA0000E940A226B017C0120E030E0A9010F94ED
:104FB000F21620E030E0A901882359F0CE010E94CA
:104FC000B5259B01AC01C701B6010F9458179B0191
:104FD000AC01688579858A859B850F94E51D688776
:104FE00079878A879B87DF91CF91FF90EF90DF9041
:104FF000CF9008952F923F924F925F926F927F923F
:105000008F929F92AF92BF92CF92DF92EF92FF92D8
:105010000F931F93CF93DF93D62FC72FFC01808070
:105020009180A280B380C501B40120E831E541E060
:1050300050E00F94461DC9016DE671E00F94B51D57
:105040006B017C01C501B40120E13EE040E050E08D
:105050000F94461DCA01B90128E130E040E050E05C
:105060000F94461D362E272E062F172F8CE3482E21
:10507000512C612C712CC501B401A30192010F9434
:10508000461DB62EA72ECA01B901A30192010F94A5
:10509000461DCB01C114D10479F1AF92BF927F9329
:1050A0006F932F923F92FF92EF92DF92CF9282E91D
:1050B00097E19F938F93CF93DF930F94C2168DB791
:1050C0009EB70E960FB6F8949EBF0FBE8DBF8D2F64
:1050D0009C2FDF91CF911F910F91FF90EF90DF9068
:1050E000CF90BF90AF909F908F907F906F905F9088
:1050F0004F903F902F900895E114F104C9F0AF92C2
:10510000BF927F936F932F923F92FF92EF9282E82C
:1051100097E19F938F93CF93DF930F94C216EDB7D0
:10512000FEB73C960FB6F894FEBF0FBEEDBFCFCFD3
:10513000012BB9F0AF92BF927F936F932F923F9262
:1051400086E797E19F938F93CF93DF930F94C216D7
:105150008DB79EB70A960FB6F8949EBF0FBE8DBF4F
:10516000B6CF892BA9F0AF92BF927F936F938EE653
:1051700097E19F938F93CF93DF930F94C216EDB770
:10518000FEB738960FB6F894FEBF0FBEEDBF9FCFA7
:10519000AF92BF928AE697E19F938F93CF93DF936D
:1051A0000F94C2160F900F900F900F900F900F90CA
:1051B0008ECF20E030E0A901BC018AE792E00C9498
:1051C000F2F02F923F924F925F926F927F928F9266
:1051D0009F92AF92BF92CF92DF92EF92FF920F9386
:1051E0001F93CF93DF9300D000D0CDB7DEB70E94DE
:1051F00015F400911F061091200620912106309190
:105200002206011511052105310509F00CC3209175
:105210009B16222309F44AC0E0919916215020934D
:105220009B1621E02E0F2093991630919C16231384
:1052300002C01092991624E0E29FF0011124E35677
:10524000F94E008111812281338100931B06109356
:105250001C0620931D0630931E06600F711F811DD2
:10526000911D60931F0670932006809321069093F2
:10527000220680911D0690911E06892BB9F08FB7EA
:105280008E83F89420901B0630901C062101712C0F
:10529000612C00911D0610911E06809154028F31E1
:1052A000F1F08F3F09F496C09E819FBF26960FB6FE
:1052B000F894DEBF0FBECDBFDF91CF911F910F914C
:1052C000FF90EF90DF90CF90BF90AF909F908F9026
:1052D0007F906F905F904F903F902F900895EFE3F5
:1052E000FAE294919D8397FDDFCF61E08FE10E9408
:1052F000DAF28D81882321F09D81923009F0BDC1C1
:105300004801B12CA12C60E072E18AE790E0A50190
:1053100098010F94681D29833A834B835C8369014C
:105320007A0121E0C21AD108E108F1088FEFC8160E
:10533000D104E104F10409F00CF46FC160E472E4FB
:105340008FE090E0A50198010F94681D69017A0132
:1053500091E0C91AD108E108F1082D81223009F045
:1053600010C18FEFC816D104E104F10409F00CF468
:10537000C0C260E970ED83E090E0A50198010F9450
:10538000681D69017A0191E0C91AD108E108F108A4
:1053900083E02FEFC216D104E104F10409F00CF40C
:1053A000A1C268E478EE81E090E0A50198010F9435
:1053B000681D69017A0181E0C81AD108E108F10885
:1053C0009FEFC916D104E104F10411F00CF0FDC007
:1053D00084E088C28FE180935402EFE3FAE22491E3
:1053E0002D83822F2F3F09F45FCF223009F469C04B
:1053F00060F4222381F1213009F445C087FD54CFA8
:1054000061E08FE10E94DAF277CF9D81943009F458
:105410009AC008F478C0953089F710922001109254
:1054200021018091210188608093210180912101D7
:10543000816080932101EDE4FCE2E491F0E0EE0F65
:10544000FF1FEC5EF34D85919491E3E9FCE2E4915A
:10545000E09365044ACF14BC15BC84B5826084BD5A
:1054600085B5816085BDEDE4FCE2E491F0E0EE0FEE
:10547000FF1FEC5EF34D85919491E3E9FCE2E4912A
:10548000E093690432CF10928000109281008091E5
:105490008100886080938100809181008160809389
:1054A0008100EDE4FCE2E491F0E0EE0FFF1FEC5E22
:1054B000F34D85919491E3E9FCE2E491E093680473
:1054C00014CF1092B0001092B1008091B0008260B1
:1054D0008093B0008091B10081608093B100EDE4D1
:1054E000FCE2E491F0E0EE0FFF1FEC5EF34D8591DE
:1054F00094919093150680931406E3E9FCE2E491FD
:10550000E0931606F2CE10929000109291008091D6
:1055100091008860809391008091910081608093D8
:105520009100EDE4FCE2E491F0E0EE0FFF1FEC5E91
:10553000F34D85919491E3E9FCE2E491E0936704F3
:1055400023E02D83D2CE1092A0001092A100809172
:10555000A10088608093A1008091A1008160809368
:10556000A100EDE4FCE2E491F0E0EE0FFF1FEC5E41
:10557000F34D85919491E3E9FCE2E491E0936604B4
:10558000B4CE8FEFC816D104E104F10409F00CF495
:1055900072C068E478EE81E090E0A50198010F9474
:1055A000681D69017A0191E0C91AD108E108F10882
:1055B0002D81222309F462C12FEFC216D104E10428
:1055C000F10411F00CF063C103CF64E274EF80E0EA
:1055D00090E0A50194010F94681D69017A0181E0B2
:1055E000C81AD108E108F10885E09FEFC916D10477
:1055F000E104F10409F008F475C162E17AE780E0A2
:1056000090E0A50194010F94681D69017A0181E081
:10561000C81AD108E108F1084CC181E02D8121119F
:1056200061C195B5987F892B85BD2FEF3FEFA9010B
:1056300045284628472809F048C09D81923009F442
:10564000E2C00CF0C9C0992309F4CEC0913009F032
:105650002BCED0928900C09288002093760430939C
:105660007704409378045093790480916F008260AE
:1056700080936F0019CE82E0D1CFB12CA12C60E0D5
:1056800072E18AE790E0A50198010F94681D690115
:105690007A0181E0C81AD108E108F108C114D104E7
:1056A00091E0E906F104F4F491E02D81213059F5FF
:1056B00080918100887F892B809381002FEF3FEFBD
:1056C000A90145284628472821F29801220F331FB7
:1056D000D1010F949A1D28EE33E040E050E00F9482
:1056E000461DABCF68E478EE81E090E0A50198011B
:1056F0000F94681D69017A0181E0C81AD108E10898
:10570000F10893E0D2CF8D818330F9F4809191003C
:10571000887F892B809391002FEF3FEFA9014528C7
:105720004628472891F6D0929900C092980020937D
:105730007204309373044093740450937504809101
:105740007100826080937100AFCD2D81243001F50E
:105750008091A100887F892B8093A1002FEF3FEFDC
:10576000A90145284628472809F0AFCFD092A900C3
:10577000C092A80020936E0430936F04409370048D
:1057800050937104809172008260809372008CCD7E
:105790008D81853009F049CF80912101887F892B47
:1057A000809321012FEF3FEFA90145284628472884
:1057B00009F08BCFD0922901C092280120936A046E
:1057C00030936B0440936C0450936D04809173008C
:1057D00082608093730068CD8D81843039F20CF43F
:1057E000A2CF853039F360CDC7BC20937A043093C3
:1057F0007B0440937C0450937D0480916E00826012
:1058000080936E0051CDC092B30020931706309361
:1058100018064093190650931A0680917000826012
:105820008093700041CD601B710B820B930B97FD31
:105830003DCD469810921F06109220061092210628
:105840001092220633CDC980DA80EB80FC809AE08A
:10585000F594E794D794C7949A95D1F721E0C21AAA
:10586000D108E108F10885E0DCCE8FEFC816D1043D
:10587000E104F10409F038F784E0D3CE83E09FEF30
:10588000C916D104E104F10409F00CF4CACE62E1B6
:105890007AE780E090E0A50194010F94681D69010A
:1058A0007A0181E0C81AD108E108F1089D819923A5
:1058B000E1F286E02FEFC216D104E104F10491F089
:1058C00088F0C980DA80EB80FC808AE0F594E79468
:1058D000D794C7948A95D1F791E0C91AD108E10805
:1058E000F10887E09091B100987F892B8093B100F7
:1058F0009CCE82E0F7CF80913204909133040097E0
:1059000031F04AE050E070E060E00D94031560E093
:1059100070E0CB0108958091320490913304009798
:1059200031F04AE050E070E060E00D94D51360E0A3
:1059300070E0CB010895CF93DF93EB010E94132316
:10594000882319F00E948B2CEB01CE01DF91CF91BF
:1059500008950E948B2C97FD0CC00E948B2C6F3FEA
:1059600071058105910509F034F40E948B2C862F76
:10597000089580E008958FEF0895CF93C62F0E9479
:105980001323882319F0CF910C94A92C8C2FCF913D
:1059900008958091320490913304892B41F00E9444
:1059A000A92C91E0811101C090E0892F089591E028
:1059B000FCCFCF93DF93C82FD62F0E9413238823C9
:1059C00021F0DF91CF910C94C92C8C2F0E94C5221D
:1059D000811101C08D2FDF91CF9108950E948B2CF2
:1059E000CB010895CF93DF93EB010E94132388230B
:1059F00021F0DF91CF910C94EE2CCE01DF91CF916D
:105A000008950F931F93CF938091320490913304A4
:105A10000097E9F0FC018F01C1912C2F2F7D81F0BF
:105A2000C53411F0C536B9F7F801108270E060E0B6
:105A30000F947712F801C083CF911F910F910895B1
:105A400070E060E0CF911F910F910D94771260E0AC
:105A500070E0CB01F1CFCF92DF92EF92FF926A011B
:105A60007B010E941323882331F0FF90EF90DF9099
:105A7000CF900C94012DC701B601FF90EF90DF90FD
:105A8000CF9008958F929F92AF92BF92CF92DF9264
:105A9000EF92FF920F931F93CF9381E1E82E87E05F
:105AA000F82E0AE712E092ECC92E9FE0D92EC0E052
:105AB00088E58C0F0E941323882309F4A7C00E9455
:105AC000012D4B015C018C2F0E94DF21882309F4FA
:105AD00093C0F8012081318142815381C501B40115
